{
  "_format": "hh-sol-artifact-1",
  "contractName": "RewardsVaultV3",
  "sourceName": "contracts/RewardsVaultV3.sol",
  "abi": [
    {
      "inputs": [
        {
          "internalType": "address",
          "name": "_usdc",
          "type": "address"
        },
        {
          "internalType": "address",
          "name": "_treasury",
          "type": "address"
        },
        {
          "internalType": "address",
          "name": "_backendSigner",
          "type": "address"
        }
      ],
      "stateMutability": "nonpayable",
      "type": "constructor"
    },
    {
      "inputs": [],
      "name": "ArrayLengthMismatch",
      "type": "error"
    },
    {
      "inputs": [],
      "name": "EnforcedPause",
      "type": "error"
    },
    {
      "inputs": [],
      "name": "EventAlreadyExists",
      "type": "error"
    },
    {
      "inputs": [],
      "name": "EventNotActive",
      "type": "error"
    },
    {
      "inputs": [],
      "name": "EventNotCompleted",
      "type": "error"
    },
    {
      "inputs": [],
      "name": "EventNotFound",
      "type": "error"
    },
    {
      "inputs": [],
      "name": "ExpectedPause",
      "type": "error"
    },
    {
      "inputs": [],
      "name": "HasRewardsCredited",
      "type": "error"
    },
    {
      "inputs": [],
      "name": "InsufficientBrandBalance",
      "type": "error"
    },
    {
      "inputs": [],
      "name": "InsufficientPoolBalance",
      "type": "error"
    },
    {
      "inputs": [],
      "name": "InvalidAmount",
      "type": "error"
    },
    {
      "inputs": [],
      "name": "InvalidEventType",
      "type": "error"
    },
    {
      "inputs": [],
      "name": "NoRefundAvailable",
      "type": "error"
    },
    {
      "inputs": [],
      "name": "NoRewardsToClaim",
      "type": "error"
    },
    {
      "inputs": [],
      "name": "NotBackendSigner",
      "type": "error"
    },
    {
      "inputs": [],
      "name": "NotBrandOwner",
      "type": "error"
    },
    {
      "inputs": [
        {
          "internalType": "address",
          "name": "owner",
          "type": "address"
        }
      ],
      "name": "OwnableInvalidOwner",
      "type": "error"
    },
    {
      "inputs": [
        {
          "internalType": "address",
          "name": "account",
          "type": "address"
        }
      ],
      "name": "OwnableUnauthorizedAccount",
      "type": "error"
    },
    {
      "inputs": [],
      "name": "ReentrancyGuardReentrantCall",
      "type": "error"
    },
    {
      "inputs": [
        {
          "internalType": "address",
          "name": "token",
          "type": "address"
        }
      ],
      "name": "SafeERC20FailedOperation",
      "type": "error"
    },
    {
      "inputs": [],
      "name": "TopPoolTooSmall",
      "type": "error"
    },
    {
      "inputs": [],
      "name": "ZeroAddress",
      "type": "error"
    },
    {
      "anonymous": false,
      "inputs": [
        {
          "indexed": true,
          "internalType": "address",
          "name": "oldSigner",
          "type": "address"
        },
        {
          "indexed": true,
          "internalType": "address",
          "name": "newSigner",
          "type": "address"
        }
      ],
      "name": "BackendSignerUpdated",
      "type": "event"
    },
    {
      "anonymous": false,
      "inputs": [
        {
          "indexed": true,
          "internalType": "bytes32",
          "name": "eventId",
          "type": "bytes32"
        },
        {
          "indexed": false,
          "internalType": "uint256",
          "name": "refundAmount",
          "type": "uint256"
        }
      ],
      "name": "EventCancelled",
      "type": "event"
    },
    {
      "anonymous": false,
      "inputs": [
        {
          "indexed": true,
          "internalType": "bytes32",
          "name": "eventId",
          "type": "bytes32"
        },
        {
          "indexed": false,
          "internalType": "uint256",
          "name": "actualParticipants",
          "type": "uint256"
        },
        {
          "indexed": false,
          "internalType": "uint256",
          "name": "totalDisbursed",
          "type": "uint256"
        },
        {
          "indexed": false,
          "internalType": "uint256",
          "name": "refundAmount",
          "type": "uint256"
        }
      ],
      "name": "EventCompleted",
      "type": "event"
    },
    {
      "anonymous": false,
      "inputs": [
        {
          "indexed": true,
          "internalType": "bytes32",
          "name": "eventId",
          "type": "bytes32"
        },
        {
          "indexed": false,
          "internalType": "enum RewardsVaultV3.EventType",
          "name": "eventType",
          "type": "uint8"
        },
        {
          "indexed": true,
          "internalType": "address",
          "name": "brandOwner",
          "type": "address"
        },
        {
          "indexed": false,
          "internalType": "uint256",
          "name": "maxParticipants",
          "type": "uint256"
        },
        {
          "indexed": false,
          "internalType": "uint256",
          "name": "totalLocked",
          "type": "uint256"
        }
      ],
      "name": "EventCreated",
      "type": "event"
    },
    {
      "anonymous": false,
      "inputs": [
        {
          "indexed": true,
          "internalType": "address",
          "name": "previousOwner",
          "type": "address"
        },
        {
          "indexed": true,
          "internalType": "address",
          "name": "newOwner",
          "type": "address"
        }
      ],
      "name": "OwnershipTransferred",
      "type": "event"
    },
    {
      "anonymous": false,
      "inputs": [
        {
          "indexed": false,
          "internalType": "address",
          "name": "account",
          "type": "address"
        }
      ],
      "name": "Paused",
      "type": "event"
    },
    {
      "anonymous": false,
      "inputs": [
        {
          "indexed": true,
          "internalType": "bytes32",
          "name": "eventId",
          "type": "bytes32"
        },
        {
          "indexed": false,
          "internalType": "uint256",
          "name": "amount",
          "type": "uint256"
        }
      ],
      "name": "PlatformFeesCollected",
      "type": "event"
    },
    {
      "anonymous": false,
      "inputs": [
        {
          "indexed": true,
          "internalType": "bytes32",
          "name": "eventId",
          "type": "bytes32"
        },
        {
          "indexed": true,
          "internalType": "address",
          "name": "brand",
          "type": "address"
        },
        {
          "indexed": false,
          "internalType": "uint256",
          "name": "amount",
          "type": "uint256"
        }
      ],
      "name": "RefundAdded",
      "type": "event"
    },
    {
      "anonymous": false,
      "inputs": [
        {
          "indexed": true,
          "internalType": "address",
          "name": "brand",
          "type": "address"
        },
        {
          "indexed": false,
          "internalType": "uint256",
          "name": "amount",
          "type": "uint256"
        }
      ],
      "name": "RefundWithdrawn",
      "type": "event"
    },
    {
      "anonymous": false,
      "inputs": [
        {
          "indexed": true,
          "internalType": "address",
          "name": "user",
          "type": "address"
        },
        {
          "indexed": false,
          "internalType": "uint256",
          "name": "amount",
          "type": "uint256"
        }
      ],
      "name": "RewardsClaimed",
      "type": "event"
    },
    {
      "anonymous": false,
      "inputs": [
        {
          "indexed": true,
          "internalType": "bytes32",
          "name": "eventId",
          "type": "bytes32"
        },
        {
          "indexed": true,
          "internalType": "address",
          "name": "user",
          "type": "address"
        },
        {
          "indexed": false,
          "internalType": "uint256",
          "name": "amount",
          "type": "uint256"
        }
      ],
      "name": "RewardsCredited",
      "type": "event"
    },
    {
      "anonymous": false,
      "inputs": [
        {
          "indexed": true,
          "internalType": "address",
          "name": "oldTreasury",
          "type": "address"
        },
        {
          "indexed": true,
          "internalType": "address",
          "name": "newTreasury",
          "type": "address"
        }
      ],
      "name": "TreasuryUpdated",
      "type": "event"
    },
    {
      "anonymous": false,
      "inputs": [
        {
          "indexed": false,
          "internalType": "address",
          "name": "account",
          "type": "address"
        }
      ],
      "name": "Unpaused",
      "type": "event"
    },
    {
      "inputs": [],
      "name": "BASE_REWARD_PER_VOTE",
      "outputs": [
        {
          "internalType": "uint256",
          "name": "",
          "type": "uint256"
        }
      ],
      "stateMutability": "view",
      "type": "function"
    },
    {
      "inputs": [],
      "name": "CREATOR_REWARD_PER_VOTE",
      "outputs": [
        {
          "internalType": "uint256",
          "name": "",
          "type": "uint256"
        }
      ],
      "stateMutability": "view",
      "type": "function"
    },
    {
      "inputs": [],
      "name": "LEADERBOARD_FIRST_PCT",
      "outputs": [
        {
          "internalType": "uint256",
          "name": "",
          "type": "uint256"
        }
      ],
      "stateMutability": "view",
      "type": "function"
    },
    {
      "inputs": [],
      "name": "LEADERBOARD_SECOND_PCT",
      "outputs": [
        {
          "internalType": "uint256",
          "name": "",
          "type": "uint256"
        }
      ],
      "stateMutability": "view",
      "type": "function"
    },
    {
      "inputs": [],
      "name": "LEADERBOARD_THIRD_PCT",
      "outputs": [
        {
          "internalType": "uint256",
          "name": "",
          "type": "uint256"
        }
      ],
      "stateMutability": "view",
      "type": "function"
    },
    {
      "inputs": [],
      "name": "MIN_TOP_POOL_MULTIPLIER",
      "outputs": [
        {
          "internalType": "uint256",
          "name": "",
          "type": "uint256"
        }
      ],
      "stateMutability": "view",
      "type": "function"
    },
    {
      "inputs": [],
      "name": "PLATFORM_FEE_POST_AND_VOTE",
      "outputs": [
        {
          "internalType": "uint256",
          "name": "",
          "type": "uint256"
        }
      ],
      "stateMutability": "view",
      "type": "function"
    },
    {
      "inputs": [],
      "name": "PLATFORM_FEE_VOTE_ONLY",
      "outputs": [
        {
          "internalType": "uint256",
          "name": "",
          "type": "uint256"
        }
      ],
      "stateMutability": "view",
      "type": "function"
    },
    {
      "inputs": [],
      "name": "backendSigner",
      "outputs": [
        {
          "internalType": "address",
          "name": "",
          "type": "address"
        }
      ],
      "stateMutability": "view",
      "type": "function"
    },
    {
      "inputs": [
        {
          "internalType": "address",
          "name": "",
          "type": "address"
        },
        {
          "internalType": "uint256",
          "name": "",
          "type": "uint256"
        }
      ],
      "name": "brandEvents",
      "outputs": [
        {
          "internalType": "bytes32",
          "name": "",
          "type": "bytes32"
        }
      ],
      "stateMutability": "view",
      "type": "function"
    },
    {
      "inputs": [
        {
          "internalType": "address",
          "name": "",
          "type": "address"
        }
      ],
      "name": "brandRefundBalance",
      "outputs": [
        {
          "internalType": "uint256",
          "name": "",
          "type": "uint256"
        }
      ],
      "stateMutability": "view",
      "type": "function"
    },
    {
      "inputs": [
        {
          "internalType": "enum RewardsVaultV3.EventType",
          "name": "eventType",
          "type": "uint8"
        },
        {
          "internalType": "uint256",
          "name": "maxParticipants",
          "type": "uint256"
        },
        {
          "internalType": "uint256",
          "name": "topPoolUsdc",
          "type": "uint256"
        }
      ],
      "name": "calculateRequiredUsdc",
      "outputs": [
        {
          "internalType": "uint256",
          "name": "",
          "type": "uint256"
        }
      ],
      "stateMutability": "pure",
      "type": "function"
    },
    {
      "inputs": [
        {
          "internalType": "bytes32",
          "name": "eventId",
          "type": "bytes32"
        }
      ],
      "name": "cancelEvent",
      "outputs": [],
      "stateMutability": "nonpayable",
      "type": "function"
    },
    {
      "inputs": [],
      "name": "claimRewards",
      "outputs": [],
      "stateMutability": "nonpayable",
      "type": "function"
    },
    {
      "inputs": [
        {
          "internalType": "bytes32",
          "name": "eventId",
          "type": "bytes32"
        },
        {
          "internalType": "enum RewardsVaultV3.EventType",
          "name": "eventType",
          "type": "uint8"
        },
        {
          "internalType": "uint256",
          "name": "maxParticipants",
          "type": "uint256"
        },
        {
          "internalType": "uint256",
          "name": "topPoolUsdc",
          "type": "uint256"
        },
        {
          "internalType": "uint256",
          "name": "useRefundBalance",
          "type": "uint256"
        }
      ],
      "name": "createEvent",
      "outputs": [],
      "stateMutability": "nonpayable",
      "type": "function"
    },
    {
      "inputs": [
        {
          "internalType": "bytes32",
          "name": "eventId",
          "type": "bytes32"
        },
        {
          "internalType": "address[]",
          "name": "users",
          "type": "address[]"
        },
        {
          "internalType": "uint256[]",
          "name": "amounts",
          "type": "uint256[]"
        },
        {
          "internalType": "uint256",
          "name": "actualParticipants",
          "type": "uint256"
        }
      ],
      "name": "creditRewardsBatch",
      "outputs": [],
      "stateMutability": "nonpayable",
      "type": "function"
    },
    {
      "inputs": [
        {
          "internalType": "address",
          "name": "token",
          "type": "address"
        },
        {
          "internalType": "uint256",
          "name": "amount",
          "type": "uint256"
        }
      ],
      "name": "emergencyWithdraw",
      "outputs": [],
      "stateMutability": "nonpayable",
      "type": "function"
    },
    {
      "inputs": [
        {
          "internalType": "bytes32",
          "name": "",
          "type": "bytes32"
        }
      ],
      "name": "eventPools",
      "outputs": [
        {
          "internalType": "bytes32",
          "name": "eventId",
          "type": "bytes32"
        },
        {
          "internalType": "enum RewardsVaultV3.EventStatus",
          "name": "status",
          "type": "uint8"
        },
        {
          "internalType": "enum RewardsVaultV3.EventType",
          "name": "eventType",
          "type": "uint8"
        },
        {
          "internalType": "address",
          "name": "brandOwner",
          "type": "address"
        },
        {
          "internalType": "uint256",
          "name": "maxParticipants",
          "type": "uint256"
        },
        {
          "internalType": "uint256",
          "name": "basePoolUsdc",
          "type": "uint256"
        },
        {
          "internalType": "uint256",
          "name": "topPoolUsdc",
          "type": "uint256"
        },
        {
          "internalType": "uint256",
          "name": "platformFeeUsdc",
          "type": "uint256"
        },
        {
          "internalType": "uint256",
          "name": "creatorPoolUsdc",
          "type": "uint256"
        },
        {
          "internalType": "uint256",
          "name": "leaderboardPoolUsdc",
          "type": "uint256"
        },
        {
          "internalType": "uint256",
          "name": "totalDisbursed",
          "type": "uint256"
        },
        {
          "internalType": "uint256",
          "name": "actualParticipants",
          "type": "uint256"
        },
        {
          "internalType": "uint256",
          "name": "createdAt",
          "type": "uint256"
        },
        {
          "internalType": "uint256",
          "name": "completedAt",
          "type": "uint256"
        }
      ],
      "stateMutability": "view",
      "type": "function"
    },
    {
      "inputs": [
        {
          "internalType": "address",
          "name": "brand",
          "type": "address"
        }
      ],
      "name": "getBrandEvents",
      "outputs": [
        {
          "internalType": "bytes32[]",
          "name": "",
          "type": "bytes32[]"
        }
      ],
      "stateMutability": "view",
      "type": "function"
    },
    {
      "inputs": [
        {
          "internalType": "address",
          "name": "brand",
          "type": "address"
        }
      ],
      "name": "getBrandRefundBalance",
      "outputs": [
        {
          "internalType": "uint256",
          "name": "",
          "type": "uint256"
        }
      ],
      "stateMutability": "view",
      "type": "function"
    },
    {
      "inputs": [
        {
          "internalType": "bytes32",
          "name": "eventId",
          "type": "bytes32"
        }
      ],
      "name": "getEventPool",
      "outputs": [
        {
          "components": [
            {
              "internalType": "bytes32",
              "name": "eventId",
              "type": "bytes32"
            },
            {
              "internalType": "enum RewardsVaultV3.EventStatus",
              "name": "status",
              "type": "uint8"
            },
            {
              "internalType": "enum RewardsVaultV3.EventType",
              "name": "eventType",
              "type": "uint8"
            },
            {
              "internalType": "address",
              "name": "brandOwner",
              "type": "address"
            },
            {
              "internalType": "uint256",
              "name": "maxParticipants",
              "type": "uint256"
            },
            {
              "internalType": "uint256",
              "name": "basePoolUsdc",
              "type": "uint256"
            },
            {
              "internalType": "uint256",
              "name": "topPoolUsdc",
              "type": "uint256"
            },
            {
              "internalType": "uint256",
              "name": "platformFeeUsdc",
              "type": "uint256"
            },
            {
              "internalType": "uint256",
              "name": "creatorPoolUsdc",
              "type": "uint256"
            },
            {
              "internalType": "uint256",
              "name": "leaderboardPoolUsdc",
              "type": "uint256"
            },
            {
              "internalType": "uint256",
              "name": "totalDisbursed",
              "type": "uint256"
            },
            {
              "internalType": "uint256",
              "name": "actualParticipants",
              "type": "uint256"
            },
            {
              "internalType": "uint256",
              "name": "createdAt",
              "type": "uint256"
            },
            {
              "internalType": "uint256",
              "name": "completedAt",
              "type": "uint256"
            }
          ],
          "internalType": "struct RewardsVaultV3.EventPool",
          "name": "",
          "type": "tuple"
        }
      ],
      "stateMutability": "view",
      "type": "function"
    },
    {
      "inputs": [
        {
          "internalType": "address",
          "name": "user",
          "type": "address"
        }
      ],
      "name": "getUserClaimableBalance",
      "outputs": [
        {
          "internalType": "uint256",
          "name": "",
          "type": "uint256"
        }
      ],
      "stateMutability": "view",
      "type": "function"
    },
    {
      "inputs": [],
      "name": "owner",
      "outputs": [
        {
          "internalType": "address",
          "name": "",
          "type": "address"
        }
      ],
      "stateMutability": "view",
      "type": "function"
    },
    {
      "inputs": [],
      "name": "pause",
      "outputs": [],
      "stateMutability": "nonpayable",
      "type": "function"
    },
    {
      "inputs": [],
      "name": "paused",
      "outputs": [
        {
          "internalType": "bool",
          "name": "",
          "type": "bool"
        }
      ],
      "stateMutability": "view",
      "type": "function"
    },
    {
      "inputs": [],
      "name": "renounceOwnership",
      "outputs": [],
      "stateMutability": "nonpayable",
      "type": "function"
    },
    {
      "inputs": [
        {
          "internalType": "address",
          "name": "newSigner",
          "type": "address"
        }
      ],
      "name": "setBackendSigner",
      "outputs": [],
      "stateMutability": "nonpayable",
      "type": "function"
    },
    {
      "inputs": [
        {
          "internalType": "address",
          "name": "newTreasury",
          "type": "address"
        }
      ],
      "name": "setTreasury",
      "outputs": [],
      "stateMutability": "nonpayable",
      "type": "function"
    },
    {
      "inputs": [],
      "name": "totalLockedUsdc",
      "outputs": [
        {
          "internalType": "uint256",
          "name": "",
          "type": "uint256"
        }
      ],
      "stateMutability": "view",
      "type": "function"
    },
    {
      "inputs": [
        {
          "internalType": "address",
          "name": "newOwner",
          "type": "address"
        }
      ],
      "name": "transferOwnership",
      "outputs": [],
      "stateMutability": "nonpayable",
      "type": "function"
    },
    {
      "inputs": [],
      "name": "treasury",
      "outputs": [
        {
          "internalType": "address",
          "name": "",
          "type": "address"
        }
      ],
      "stateMutability": "view",
      "type": "function"
    },
    {
      "inputs": [],
      "name": "unpause",
      "outputs": [],
      "stateMutability": "nonpayable",
      "type": "function"
    },
    {
      "inputs": [],
      "name": "usdc",
      "outputs": [
        {
          "internalType": "contract IERC20",
          "name": "",
          "type": "address"
        }
      ],
      "stateMutability": "view",
      "type": "function"
    },
    {
      "inputs": [
        {
          "internalType": "address",
          "name": "",
          "type": "address"
        }
      ],
      "name": "userClaimableBalance",
      "outputs": [
        {
          "internalType": "uint256",
          "name": "",
          "type": "uint256"
        }
      ],
      "stateMutability": "view",
      "type": "function"
    },
    {
      "inputs": [],
      "name": "withdrawRefund",
      "outputs": [],
      "stateMutability": "nonpayable",
      "type": "function"
    }
  ],
  "bytecode": "0x60a0346200018157601f62001c4b38819003918201601f19168301916001600160401b03831184841017620001865780849260609460405283398101031262000181576200004d816200019c565b62000069604062000061602085016200019c565b93016200019c565b331562000168576000549260018060a01b03199333858216176000556040519060018060a01b03948591823391167f8be0079c531659141344cd1fd0a4f28419497f9722a3daafe3b4186f6b6457e0600080a3600180551690811580156200015d575b801562000152575b62000143575060805260028054610100600160a81b03191660089290921b610100600160a81b0316919091179055600380549093169116179055604051611a999081620001b28239608051818181610bef01528181610e5301528181610ecf015281816111d501526114dc0152f35b63d92e233d60e01b8152600490fd5b5084841615620000d4565b5084831615620000cc565b604051631e4fbdf760e01b815260006004820152602490fd5b600080fd5b634e487b7160e01b600052604160045260246000fd5b51906001600160a01b0382168203620001815756fe608080604052600436101561001357600080fd5b60003560e01c90816301f0adba14611750575080630857605b146115615780630d89ba8a14611544578063110f88741461148f5780631aa4b2dd14610fac57806336f9567014610f37578063372500ab14610e825780633e413bee14610e3d5780633f4ba83a14610dd35780634189c2be14610db65780634d9668931461033a5780635c975abb14610d9357806361d027b314610d6657806365d65e8614610d3d578063715018a614610ce457806371a5a0a9146108c45780638456cb591461086a57806389d27fd01461084d5780638da5cb5b14610824578063901040921461080857806395ccea67146107c957806399e7f488146106e9578063a8b9046414610609578063aa26176c14610423578063aa96da7d146103cb578063b2c7e0e8146102c5578063be6c75cd146103ae578063c582b58514610391578063cdb2cb0e14610374578063de550f081461033a578063e1b0b1661461031d578063eb0122db146102ff578063efb54e66146102c5578063f0f44260146102335763f2fde38b146101a057600080fd5b3461022e57602036600319011261022e576101b961186f565b6101c16118b3565b6001600160a01b0390811690811561021557600054826bffffffffffffffffffffffff60a01b821617600055167f8be0079c531659141344cd1fd0a4f28419497f9722a3daafe3b4186f6b6457e0600080a3005b604051631e4fbdf760e01b815260006004820152602490fd5b600080fd5b3461022e57602036600319011261022e5761024c61186f565b6102546118b3565b6001600160a01b038181169182156102b35760028054610100600160a81b03198116600893841b610100600160a81b031617909155901c167f4ab5be82436d353e61ca18726e984e561f5c1cc7c6d38b29d2553c790434705a600080a3005b60405163d92e233d60e01b8152600490fd5b3461022e57602036600319011261022e576001600160a01b036102e661186f565b1660005260076020526020604060002054604051908152f35b3461022e57600036600319011261022e576020600854604051908152f35b3461022e57600036600319011261022e5760206040516105dc8152f35b3461022e57602036600319011261022e576001600160a01b0361035b61186f565b1660005260066020526020604060002054604051908152f35b3461022e57600036600319011261022e576020604051614e208152f35b3461022e57600036600319011261022e5760206040516113888152f35b3461022e57600036600319011261022e5760206040516175308152f35b3461022e57604036600319011261022e576103e461186f565b6001600160a01b031660009081526005602052604090208054602435919082101561022e5760209161041591611885565b90546040519160031b1c8152f35b3461022e57602036600319011261022e5760043561043f6119bb565b61044761199d565b600081815260046020526040902060018101805492916001600160a01b03601085901c811680156105f75760ff861660038110156105e1576105cf57331415806105c1575b806105b3575b6105a157600882015461058f577f0fe7a478dc3b0c1e6b818ed755841a4b2fd5415bcb98e00addcd81af308b65af92818360026105046104f96104ee6104e3600360209a01546004870154906118f2565b6005860154906118f2565b6006850154906118f2565b6007840154906118f2565b9860ff19161790818455600b4291015560101c1660005260078352604060002061052f8782546118f2565b9055600854868082111561058657610546916118ff565b600855847f1691b01d706f050565dcae123a35f365a452ba2fb2d00bd31a33615f17ba1f3b84604051898152a25460101c1693604051908152a360018055005b50506000610546565b60405163631a365960e11b8152600490fd5b6040516302accef560e61b8152600490fd5b508060005416331415610492565b50806003541633141561048c565b6040516301e1837960e31b8152600490fd5b634e487b7160e01b600052602160045260246000fd5b604051635add554360e01b8152600490fd5b3461022e5760208060031936011261022e576001600160a01b0361062b61186f565b16600052600581526040600020604051808383549182815201908193600052846000209060005b868282106106d55750505050819003601f01601f191681019267ffffffffffffffff8411828510176106bf5783929183604052818401908285525180915260408401929160005b8281106106a857505050500390f35b835185528695509381019392810192600101610699565b634e487b7160e01b600052604160045260246000fd5b835485529093019260019283019201610652565b3461022e57606036600319011261022e57600435600281101561022e5760243560443591617530908282029182048303610784576001149182156107b457614e20818102908104820361078457925b801561079a5761c35091808302928304036107845761076f6107749461076f60209761076f95945b1561077c578060011c966118f2565b6118f2565b604051908152f35b6000966118f2565b634e487b7160e01b600052601160045260246000fd5b61076f915061076f6107749461076f602097600094610760565b613a9881810290810482036107845792610738565b3461022e57604036600319011261022e576108066107e561186f565b6107ed6118b3565b600054602435916001600160a01b039182169116611a11565b005b3461022e57600036600319011261022e57602060405160028152f35b3461022e57600036600319011261022e576000546040516001600160a01b039091168152602090f35b3461022e57600036600319011261022e57602060405161c3508152f35b3461022e57600036600319011261022e576108836118b3565b61088b61199d565b600160ff1960025416176002557f62e78cea01bee320cd4e420270b5ea74000d11b0c9f74754ebdbfc544b05a2586020604051338152a1005b3461022e5760a036600319011261022e576002602435101561022e576108e86119bb565b6108f061199d565b600435600052600460205260018060a01b0360016040600020015460101c16610cd25760443515610cc057617530806044358102046044350361078457602435600114908115610cb55761094a614e205b604435906118df565b9161ea60604435026044358302810460021460443584021517156107845760643510610ca35760008091610c82575b6109958261076f8361076f8861076f6064356044358b026118f2565b936000608435610c19575b6109aa90866118ff565b80610ba3575b50604051936109be8561190c565b6004358552600060208601526109d960243560408701611929565b33606086015260443560808601526044350260a085015260643560c085015260e0840152610100830152610120820152600061014082015260006101608201524261018082015260006101a08201526004356000526004602052604060002090805182556001820160208201519160038310156105e157815491604082015160028110156105e157600b946101a09460ff61ff0062010000600160b01b03606088015160101b169460081b1692169069ffffffffffffffffffff60b01b1617171790556080810151600285015560a0810151600385015560c0810151600485015560e081015160058501556101008101516006850155610120810151600785015561014081015160088501556101608101516009850155610180810151600a850155015191015533600052600560205260406000208054680100000000000000008110156106bf57610b3091600182018155611885565b81549060031b90600435821b91600019901b1916179055610b53816008546118f2565b60085560405190610b6682602435611831565b6044356020830152604082015233907fe8538d6423661963db460dace415a528d751b68b79688f072acc6d13a0006ec2606060043592a360018055005b604051906323b872dd60e01b60208301523360248301523060448301526064820152606481528060a081011067ffffffffffffffff60a0830111176106bf578060a0610c1392016040527f0000000000000000000000000000000000000000000000000000000000000000611935565b856109b0565b5033600052600760205260406000205460843511610c70578460843511600014610c65576109aa855b80336000526007602052610c5c60406000209182546118ff565b905590506109a0565b6109aa608435610c42565b604051635cc8af6b60e11b8152600490fd5b505061c3506044358102908104604435036107845760643560011c90610979565b60405163a67c7ef360e01b8152600490fd5b61094a613a98610941565b60405163162908e360e11b8152600490fd5b60405163232cdbe760e11b8152600490fd5b3461022e57600036600319011261022e57610cfd6118b3565b600080546001600160a01b0319811682556001600160a01b03167f8be0079c531659141344cd1fd0a4f28419497f9722a3daafe3b4186f6b6457e08280a3005b3461022e57600036600319011261022e576003546040516001600160a01b039091168152602090f35b3461022e57600036600319011261022e5760025460405160089190911c6001600160a01b03168152602090f35b3461022e57600036600319011261022e57602060ff600254166040519015158152f35b3461022e57600036600319011261022e576020604051610dac8152f35b3461022e57600036600319011261022e57610dec6118b3565b60025460ff811615610e2b5760ff19166002557f5db9ee0a495bf2e6ff9c91a7834c1ba4fdd244a5e8aa4e537bd38aeae4b073aa6020604051338152a1005b604051638dfc202b60e01b8152600490fd5b3461022e57600036600319011261022e576040517f00000000000000000000000000000000000000000000000000000000000000006001600160a01b03168152602090f35b3461022e57600036600319011261022e57610e9b6119bb565b610ea361199d565b3360005260066020526040600020548015610f255733600052600660205260006040812055610ef381337f0000000000000000000000000000000000000000000000000000000000000000611a11565b6040519081527ffc30cddea38e2bf4d6ea7d3f9ed3b6ad7f176419f4963bd81318067a4aee73fe60203392a260018055005b6040516373380d9960e01b8152600490fd5b3461022e57602036600319011261022e57610f5061186f565b610f586118b3565b6001600160a01b039081169081156102b357600354826bffffffffffffffffffffffff60a01b821617600355167f93f9d0472cb0fc12887bf8f1f15cc7a197a5acd122ab23b8dcc25de0191e0d5e600080a3005b3461022e57608036600319011261022e5760043567ffffffffffffffff60243581811161022e57610fe190369060040161183e565b9160443590811161022e57610ffa90369060040161183e565b9290916064359260018060a01b03806003541633141580611481575b61146f576110226119bb565b61102a61199d565b85840361145d57866000526020916004835260406000209460018601918254848160101c16156105f75760ff1660038110156105e1576105cf5760009560005b8a808210611438575050611087600389015460048a0154906118f2565b6110a561109a600692838c0154906118f2565b60078b0154906118f2565b9a8b8911611426578c60005b86811061136957505050505050508360088601558560098601556002600160ff19835416179586835542600b82015501548680821160001461135f576110f6916118ff565b965b60ff8660081c1660028110156105e15760011490811561135657614e20985b6000928161128a575b5050877f8bf6c650d822cb80001ecfec5dd7ffb520a9ace030be53d5f0a1ab87058fe56699856111929561117360609c9b9a999896611182968b8082116000146112805761116d916118ff565b906118f2565b998a61122a575b5050506118df565b9081806111c8575b5050836118f2565b60085490808211156111bf576111a7916118ff565b6008556040519384528301526040820152a260018055005b505060006111a7565b6111f99160025460081c167f0000000000000000000000000000000000000000000000000000000000000000611a11565b887fb89ad489bf792c59d528f78452cd3b177c7f44770b62e41c8d7f185e8e3c199284604051848152a2898161118a565b829060101c166000526007885260406000206112478b82546118f2565b90555460101c168c7f0fe7a478dc3b0c1e6b818ed755841a4b2fd5415bcb98e00addcd81af308b65af886040518c8152a3838d8061117a565b50506000906118f2565b90939897969594925061753099848b029a8b048503610784576112ad85826118df565b91156113145761c3509480860295860403610784578360609a611173611182956113017f8bf6c650d822cb80001ecfec5dd7ffb520a9ace030be53d5f0a1ab87058fe5669f61076f8f986111929c926118f2565b9750955050955095969798995099611120565b61119294508360609a611173611182956113017f8bf6c650d822cb80001ecfec5dd7ffb520a9ace030be53d5f0a1ab87058fe5669f61076f8f986000926118f2565b613a9898611117565b50506000966110f8565b611419918961138161137c848b8a6119ed565b6119fd565b1615611420576113928285896119ed565b3515611420576113a38285896119ed565b358a6113b361137c858c8b6119ed565b16600052858c526113ca60406000209182546118f2565b90556113da61137c838a896119ed565b907f1ed10758c409cd0b25a268839e9f535245cb7951713f3ee9072f1fd1095320098c8c61140986898d6119ed565b35946040519586521693a36119de565b8d906110b1565b506119de565b60405163bc6072f160e01b8152600490fd5b819861144b6114589361145293876119ed565b35906118f2565b976119de565b61106a565b60405163512509d360e11b8152600490fd5b604051631ac4bab960e31b8152600490fd5b508060005416331415611016565b3461022e57600036600319011261022e576114a86119bb565b6114b061199d565b3360005260076020526040600020548015611532573360005260076020526000604081205561150081337f0000000000000000000000000000000000000000000000000000000000000000611a11565b6040519081527f3d97f39b86d061200a7834082f5926e58ec10fd85a9d6930f497729d5e6cc35c60203392a260018055005b60405163e49c14cb60e01b8152600490fd5b3461022e57600036600319011261022e576020604051613a988152f35b3461022e57602036600319011261022e5760006101a06040516115838161190c565b8281528260208201528260408201528260608201528260808201528260a08201528260c08201528260e082015282610100820152826101208201528261014082015282610160820152826101808201520152600435600052600460205260406000206040516115f18161190c565b815481526001820154600360ff821610156105e1576101c0928160ff600b9316602085015261162960ff8260081c1660408601611929565b60018060a01b039060101c16606084015260028101546080840152600381015460a0840152600481015460c0840152600581015460e08401526006810154610100840152600781015461012084015260088101546101408401526009810154610160840152600a81015461018084015201546101a08201526101a060405191805183526116be60208201516020850190611824565b6116d060408201516040850190611831565b60018060a01b0360608201511660608401526080810151608084015260a081015160a084015260c081015160c084015260e081015160e084015261010081015161010084015261012081015161012084015261014081015161014084015261016081015161016084015261018081015161018084015201516101a0820152f35b3461022e57602036600319011261022e576101c0906004356000526004602052604060002080549060018101546002820154600383015460048401546005850154600686015491600787015493600888015495600989015497600b600a8b01549a01549a8c526117c660208d0160ff8316611824565b6117d960408d0160ff8360081c16611831565b60101c6001600160a01b031660608c015260808b015260a08a015260c089015260e08801526101008701526101208601526101408501526101608401526101808301526101a0820152f35b9060038210156105e15752565b9060028210156105e15752565b9181601f8401121561022e5782359167ffffffffffffffff831161022e576020808501948460051b01011161022e57565b600435906001600160a01b038216820361022e57565b805482101561189d5760005260206000200190600090565b634e487b7160e01b600052603260045260246000fd5b6000546001600160a01b031633036118c757565b60405163118cdaa760e01b8152336004820152602490fd5b8181029291811591840414171561078457565b9190820180921161078457565b9190820391821161078457565b6101c0810190811067ffffffffffffffff8211176106bf57604052565b60028210156105e15752565b906000602091828151910182855af115611991576000513d61198857506001600160a01b0381163b155b6119665750565b604051635274afe760e01b81526001600160a01b039091166004820152602490fd5b6001141561195f565b6040513d6000823e3d90fd5b60ff600254166119a957565b60405163d93c066560e01b8152600490fd5b6002600154146119cc576002600155565b604051633ee5aeb560e01b8152600490fd5b60001981146107845760010190565b919081101561189d5760051b0190565b356001600160a01b038116810361022e5790565b60405163a9059cbb60e01b60208201526001600160a01b039092166024830152604480830193909352918152608081019167ffffffffffffffff8311828410176106bf57611a6192604052611935565b56fea26469706673582212201c89831336900fce2230864865faf6fc945fa36d6a0e049387f8df29c2f5568e64736f6c63430008140033",
  "linkReferences": {},
  "deployedLinkReferences": {}
}